{
  "contractName": "VaccineTracking",
  "abi": [
    {
      "anonymous": false,
      "inputs": [
        {
          "indexed": false,
          "internalType": "string",
          "name": "batchId",
          "type": "string"
        },
        {
          "indexed": false,
          "internalType": "string",
          "name": "manufacturer",
          "type": "string"
        }
      ],
      "name": "BatchRegistered",
      "type": "event"
    },
    {
      "anonymous": false,
      "inputs": [
        {
          "indexed": false,
          "internalType": "string",
          "name": "batchId",
          "type": "string"
        },
        {
          "indexed": false,
          "internalType": "bool",
          "name": "isValid",
          "type": "bool"
        }
      ],
      "name": "BatchVerified",
      "type": "event"
    },
    {
      "inputs": [
        {
          "internalType": "string",
          "name": "",
          "type": "string"
        }
      ],
      "name": "vaccineBatches",
      "outputs": [
        {
          "internalType": "string",
          "name": "batchId",
          "type": "string"
        },
        {
          "internalType": "string",
          "name": "manufacturer",
          "type": "string"
        },
        {
          "internalType": "uint256",
          "name": "productionDate",
          "type": "uint256"
        },
        {
          "internalType": "uint256",
          "name": "expiryDate",
          "type": "uint256"
        },
        {
          "internalType": "bool",
          "name": "isValid",
          "type": "bool"
        }
      ],
      "stateMutability": "view",
      "type": "function",
      "constant": true
    },
    {
      "inputs": [
        {
          "internalType": "string",
          "name": "_batchId",
          "type": "string"
        },
        {
          "internalType": "string",
          "name": "_manufacturer",
          "type": "string"
        },
        {
          "internalType": "uint256",
          "name": "_productionDate",
          "type": "uint256"
        },
        {
          "internalType": "uint256",
          "name": "_expiryDate",
          "type": "uint256"
        }
      ],
      "name": "registerBatch",
      "outputs": [],
      "stateMutability": "nonpayable",
      "type": "function"
    },
    {
      "inputs": [
        {
          "internalType": "string",
          "name": "_batchId",
          "type": "string"
        }
      ],
      "name": "verifyBatch",
      "outputs": [
        {
          "internalType": "bool",
          "name": "",
          "type": "bool"
        }
      ],
      "stateMutability": "view",
      "type": "function",
      "constant": true
    },
    {
      "inputs": [
        {
          "internalType": "string",
          "name": "_batchId",
          "type": "string"
        }
      ],
      "name": "invalidateBatch",
      "outputs": [],
      "stateMutability": "nonpayable",
      "type": "function"
    }
  ],
  "bytecode": "0x608060405234801561000f575f80fd5b50610dde8061001d5f395ff3fe608060405234801561000f575f80fd5b506004361061004a575f3560e01c8063cbb8763b1461004e578063d946bc0814610082578063e906dc421461009e578063f795ed14146100ce575b5f80fd5b6100686004803603810190610063919061065b565b6100ea565b60405161007995949392919061074e565b60405180910390f35b61009c6004803603810190610097919061065b565b61024b565b005b6100b860048036038101906100b3919061065b565b61032b565b6040516100c591906107ad565b60405180910390f35b6100e860048036038101906100e391906107f0565b610360565b005b5f818051602081018201805184825260208301602085012081835280955050505050505f91509050805f018054610120906108b9565b80601f016020809104026020016040519081016040528092919081815260200182805461014c906108b9565b80156101975780601f1061016e57610100808354040283529160200191610197565b820191905f5260205f20905b81548152906001019060200180831161017a57829003601f168201915b5050505050908060010180546101ac906108b9565b80601f01602080910402602001604051908101604052809291908181526020018280546101d8906108b9565b80156102235780601f106101fa57610100808354040283529160200191610223565b820191905f5260205f20905b81548152906001019060200180831161020657829003601f168201915b505050505090806002015490806003015490806004015f9054906101000a900460ff16905085565b5f808260405161025b9190610923565b90815260200160405180910390205f018054610276906108b9565b9050116102b8576040517f08c379a00000000000000000000000000000000000000000000000000000000081526004016102af90610983565b60405180910390fd5b5f80826040516102c89190610923565b90815260200160405180910390206004015f6101000a81548160ff0219169083151502179055507f03597dc9f270e6a92ae04f0d2465d7df0ee3de0c944d5ab75be4403357d64949815f6040516103209291906109a1565b60405180910390a150565b5f808260405161033b9190610923565b90815260200160405180910390206004015f9054906101000a900460ff169050919050565b5f8451116103a3576040517f08c379a000000000000000000000000000000000000000000000000000000000815260040161039a90610a19565b60405180910390fd5b5f8351116103e6576040517f08c379a00000000000000000000000000000000000000000000000000000000081526004016103dd90610a81565b60405180910390fd5b808210610428576040517f08c379a000000000000000000000000000000000000000000000000000000000815260040161041f90610ae9565b60405180910390fd5b6040518060a00160405280858152602001848152602001838152602001828152602001600115158152505f856040516104619190610923565b90815260200160405180910390205f820151815f0190816104829190610ca4565b5060208201518160010190816104989190610ca4565b5060408201518160020155606082015181600301556080820151816004015f6101000a81548160ff0219169083151502179055509050507fca7bcd0602bf44683981606cfff73e84bd61eaf17aa61b77facc3ec22f6fad998484604051610500929190610d73565b60405180910390a150505050565b5f604051905090565b5f80fd5b5f80fd5b5f80fd5b5f80fd5b5f601f19601f8301169050919050565b7f4e487b71000000000000000000000000000000000000000000000000000000005f52604160045260245ffd5b61056d82610527565b810181811067ffffffffffffffff8211171561058c5761058b610537565b5b80604052505050565b5f61059e61050e565b90506105aa8282610564565b919050565b5f67ffffffffffffffff8211156105c9576105c8610537565b5b6105d282610527565b9050602081019050919050565b828183375f83830152505050565b5f6105ff6105fa846105af565b610595565b90508281526020810184848401111561061b5761061a610523565b5b6106268482856105df565b509392505050565b5f82601f8301126106425761064161051f565b5b81356106528482602086016105ed565b91505092915050565b5f602082840312156106705761066f610517565b5b5f82013567ffffffffffffffff81111561068d5761068c61051b565b5b6106998482850161062e565b91505092915050565b5f81519050919050565b5f82825260208201905092915050565b5f5b838110156106d95780820151818401526020810190506106be565b5f8484015250505050565b5f6106ee826106a2565b6106f881856106ac565b93506107088185602086016106bc565b61071181610527565b840191505092915050565b5f819050919050565b61072e8161071c565b82525050565b5f8115159050919050565b61074881610734565b82525050565b5f60a0820190508181035f83015261076681886106e4565b9050818103602083015261077a81876106e4565b90506107896040830186610725565b6107966060830185610725565b6107a3608083018461073f565b9695505050505050565b5f6020820190506107c05f83018461073f565b92915050565b6107cf8161071c565b81146107d9575f80fd5b50565b5f813590506107ea816107c6565b92915050565b5f805f806080858703121561080857610807610517565b5b5f85013567ffffffffffffffff8111156108255761082461051b565b5b6108318782880161062e565b945050602085013567ffffffffffffffff8111156108525761085161051b565b5b61085e8782880161062e565b935050604061086f878288016107dc565b9250506060610880878288016107dc565b91505092959194509250565b7f4e487b71000000000000000000000000000000000000000000000000000000005f52602260045260245ffd5b5f60028204905060018216806108d057607f821691505b6020821081036108e3576108e261088c565b5b50919050565b5f81905092915050565b5f6108fd826106a2565b61090781856108e9565b93506109178185602086016106bc565b80840191505092915050565b5f61092e82846108f3565b915081905092915050565b7f4261746368206e6f7420666f756e6400000000000000000000000000000000005f82015250565b5f61096d600f836106ac565b915061097882610939565b602082019050919050565b5f6020820190508181035f83015261099a81610961565b9050919050565b5f6040820190508181035f8301526109b981856106e4565b90506109c8602083018461073f565b9392505050565b7f42617463682049442072657175697265640000000000000000000000000000005f82015250565b5f610a036011836106ac565b9150610a0e826109cf565b602082019050919050565b5f6020820190508181035f830152610a30816109f7565b9050919050565b7f4d616e75666163747572657220726571756972656400000000000000000000005f82015250565b5f610a6b6015836106ac565b9150610a7682610a37565b602082019050919050565b5f6020820190508181035f830152610a9881610a5f565b9050919050565b7f496e76616c6964206461746573000000000000000000000000000000000000005f82015250565b5f610ad3600d836106ac565b9150610ade82610a9f565b602082019050919050565b5f6020820190508181035f830152610b0081610ac7565b9050919050565b5f819050815f5260205f209050919050565b5f6020601f8301049050919050565b5f82821b905092915050565b5f60088302610b637fffffffffffffffffffffffffffffffffffffffffffffffffffffffffffffffff82610b28565b610b6d8683610b28565b95508019841693508086168417925050509392505050565b5f819050919050565b5f610ba8610ba3610b9e8461071c565b610b85565b61071c565b9050919050565b5f819050919050565b610bc183610b8e565b610bd5610bcd82610baf565b848454610b34565b825550505050565b5f90565b610be9610bdd565b610bf4818484610bb8565b505050565b5b81811015610c1757610c0c5f82610be1565b600181019050610bfa565b5050565b601f821115610c5c57610c2d81610b07565b610c3684610b19565b81016020851015610c45578190505b610c59610c5185610b19565b830182610bf9565b50505b505050565b5f82821c905092915050565b5f610c7c5f1984600802610c61565b1980831691505092915050565b5f610c948383610c6d565b9150826002028217905092915050565b610cad826106a2565b67ffffffffffffffff811115610cc657610cc5610537565b5b610cd082546108b9565b610cdb828285610c1b565b5f60209050601f831160018114610d0c575f8415610cfa578287015190505b610d048582610c89565b865550610d6b565b601f198416610d1a86610b07565b5f5b82811015610d4157848901518255600182019150602085019450602081019050610d1c565b86831015610d5e5784890151610d5a601f891682610c6d565b8355505b6001600288020188555050505b505050505050565b5f6040820190508181035f830152610d8b81856106e4565b90508181036020830152610d9f81846106e4565b9050939250505056fea26469706673582212202ce539c8cfb3e24a58570a6959082df122bde876db0ade1cbdeba275b6821baa64736f6c63430008150033",
  "immutableReferences": {},
  "source": "// SPDX-License-Identifier: MIT\r\npragma solidity ^0.8.0;\r\n\r\ncontract VaccineTracking {\r\n    struct VaccineBatch {\r\n        string batchId;\r\n        string manufacturer;\r\n        uint256 productionDate;\r\n        uint256 expiryDate;\r\n        bool isValid;\r\n    }\r\n\r\n    mapping(string => VaccineBatch) public vaccineBatches;\r\n\r\n    event BatchRegistered(string batchId, string manufacturer);\r\n    event BatchVerified(string batchId, bool isValid);\r\n\r\n    function registerBatch(\r\n        string memory _batchId,\r\n        string memory _manufacturer,\r\n        uint256 _productionDate,\r\n        uint256 _expiryDate\r\n    ) public {\r\n        require(bytes(_batchId).length > 0, \"Batch ID required\");\r\n        require(bytes(_manufacturer).length > 0, \"Manufacturer required\");\r\n        require(_productionDate < _expiryDate, \"Invalid dates\");\r\n\r\n        vaccineBatches[_batchId] = VaccineBatch(\r\n            _batchId,\r\n            _manufacturer,\r\n            _productionDate,\r\n            _expiryDate,\r\n            true\r\n        );\r\n\r\n        emit BatchRegistered(_batchId, _manufacturer);\r\n    }\r\n\r\n    function verifyBatch(string memory _batchId) public view returns (bool) {\r\n        return vaccineBatches[_batchId].isValid;\r\n    }\r\n\r\n    function invalidateBatch(string memory _batchId) public {\r\n        require(bytes(vaccineBatches[_batchId].batchId).length > 0, \"Batch not found\");\r\n        vaccineBatches[_batchId].isValid = false;\r\n        emit BatchVerified(_batchId, false);\r\n    }\r\n}\r\n",
  "sourcePath": "C:\\Users\\LENOVO\\Desktop\\vaccine-tracking\\contracts\\VaccineTracking.sol",
  "compiler": {
    "name": "solc",
    "version": "0.8.21+commit.d9974bed.Emscripten.clang"
  },
  "schemaVersion": "3.4.16",
  "updatedAt": "2025-02-16T08:37:40.264Z",
  "networkType": "ethereum",
  "devdoc": {
    "kind": "dev",
    "methods": {},
    "version": 1
  },
  "userdoc": {
    "kind": "user",
    "methods": {},
    "version": 1
  }
}